:060000000A128A11FC2F18
:10000E007008F6007108F7007208F8000310770DFB
:10001E00780DF900790883120313A5002508031D36
:10002E0021280030F3000030F2000030F1000030E3
:10003E00F00008007308F6007408F7007508F80061
:10004E000310770D780DF9007908A4002408031D1C
:10005E0039280030F3000030F2000030F10000309B
:10006E00F0000800F117FF30F005FF30F105003009
:10007E00F205F417FF30F305FF30F4050030F505F7
:10008E000030A3000030A2000030A1000030A0001C
:10009E007F30A50298302407F6007608A5021830A6
:1000AE00F6007608A4000130F6000310A00DA10D95
:1000BE00A20DA30DF60B5C2875087202031D6D28A8
:1000CE0074087102031D6D2873087002031C7A28D0
:1000DE007308F0027408031C740FF1027508031CF8
:1000EE00750AF202201401300310F00DF10DF20D1D
:1000FE00FF3E031D7B280130A402031D5A28A51FB5
:10010E00A6282508803A973E031896280030F3005B
:10011E000030F2000030F1000030F0000800013035
:10012E000310A30CA20CA10CA00CFF3E031D9728DC
:10013E000130F6007608A5070319C1289628183055
:10014E002502031CBE280030F3000030F200003000
:10015E00F1000030F00008000130F6000310A00D91
:10016E00A10DA20DA30DF60BB5280130A502250891
:10017E00031DB3282308F3002208F2002108F10022
:10018E002008F000080083120313CF006E304F02D8
:10019E00031CA8290330C3004308A4000A30F7004B
:1001AE000030F8004F08C400C5014408F2004508AD
:1001BE00F3006430F0000030F1000A168A11542268
:1001CE000A128A117108FA007008F9000A168A11CB
:1001DE009F220A128A117708093E0A168A116F2188
:1001EE000A128A11293E84000A168A1100200A1268
:1001FE008A1183120313B0000A168A1100200A1204
:10020E008A11B1000A168A1100200A128A11B20050
:10021E000330C6004608A4006430F7000030F80032
:10022E004F08C700C8014708F9004808FA000A1627
:10023E008A119F220A128A117708123E0A168A1113
:10024E006F210A128A11293E84000A168A11002093
:10025E000A128A1183120313B3000A168A110020A0
:10026E000A128A11B4000A168A1100200A128A1183
:10027E00B5000A168A112D270A128A11831203134A
:10028E003008CC003108CD003208CE000330C30058
:10029E004308A4004F08C400C5014408F2004508F5
:1002AE00F3000A30F0000030F1000A168A115422D1
:1002BE000A128A1170080A168A116F210A128A11FF
:1002CE00293E84000A168A1100200A128A1183120E
:1002DE000313B0000A168A1100200A128A11B10007
:1002EE000A168A1100200A128A11B2004C08B300B5
:1002FE004D08B4004E08B5000A168A112D270A12B1
:10030E008A11831203133008C9003108CA0032085B
:10031E00CB000030B0000030B1003F30B2004908D1
:10032E00B3004A08B4004B08B5000A168A112D27EF
:10033E00831203133008C0003108C1003208C20016
:10034E0008000B304F02031C322A0330C30043084F
:10035E00A4004F08C400C5014408F2004508F3008C
:10036E000A30F0000030F1000A168A1154220A12E7
:10037E008A1170080A168A116F210A128A11293EF3
:10038E0084000A168A1100200A128A11831203139E
:10039E00B0000A168A1100200A128A11B1000A163C
:1003AE008A1100200A128A11B2000330C6004608D4
:1003BE00A4000A30F7000030F8004F08C700C8014B
:1003CE004708F9004808FA000A168A119F220A12F5
:1003DE008A117708093E0A168A116F210A128A11AC
:1003EE00293E84000A168A1100200A128A118312ED
:1003FE000313B3000A168A1100200A128A11B400E0
:10040E000A168A1100200A128A11B5000A168A11DC
:10041E002D270A128A11831203133008CC003108DB
:10042E00CD003208CE000030B0000030B1003F30B9
:10043E00B2004C08B3004D08B4004E08B5000A16C1
:10044E008A112D27831203133008C0003108C10012
:10045E003208C20008000030B0000030B1003F305A
:10046E00B2000330C3004308A4004F080A168A11D5
:10047E006F210A128A11293E84000A168A11002061
:10048E000A128A1183120313B3000A168A1100206E
:10049E000A128A11B4000A168A1100200A128A1151
:1004AE00B5000A168A112D27831203133008C000D7
:1004BE003108C1003208C200080083160313D800A9
:1004CE006A30CC004C08D500013083160313D807D0
:1004DE00FF30580784000A168A1100200A128A116A
:1004EE00CC004C08E800680803190800253068069F
:1004FE000319882A68080A168A1138210A128A11E5
:10050E006B2A83160313D601D701580884000A16E6
:10051E008A1100200A128A112E3A031DD72A571764
:10052E000130CC004C08D807E301E40158088400E0
:10053E000A168A1100200A128A110A168A116121DE
:10054E000A128A11031CDF2A831603136408F100B2
:10055E006308F0000A30F2000030F3000A168A1128
:10056E00D8210A128A1183160313580884000A161A
:10057E008A1100200A128A117007CC00003003186D
:10058E0001307107CD004C08D03EE3004D08031832
:10059E00013EFF3EE4000130CC004C08D8079D2AF6
:1005AE0083160313E301E4015716DF2A5715F32AC6
:1005BE00013083160313D807FF30580784000A163C
:1005CE008A1100200A128A11E800003A0319FB2F43
:1005DE00663A0319DD2A6B2A00305605CC00073027
:1005EE005705CD004C084D040319A62F571E032B9B
:1005FE000630E3000030E400550884008313000841
:10060E00E500840A0008E600840A0008E7000330CB
:10061E00CC004C08D5076508F0006608F1006708A5
:10062E00F2000030F3000030F4000030F5000A163E
:10063E008A11FA220A128A110318522B83160313F7
:10064E00650883120313D4008316031366088312FE
:10065E000313D50083160313670883120313D60002
:10066E000A168A1140210A128A11831203135408A2
:10067E0083160313E5008312031355088316031321
:10068E00E60083120313560883160313E7000330A4
:10069E00D6040030D70483160313DD01DE0167088C
:1006AE006604650403193E2CE530840083130008AC
:1006BE00CC00840A0008CD00840A0008CE00840A0B
:1006CE000008CF000F300310CF0CCE0CCD0CCC0C8D
:1006DE00FF3E031D6A2BFF304C05D00000304D0548
:1006EE00D1005008823EDD0051080318013EFF3E46
:1006FE00DE00FF30DD070318DE0AFF30DE070330B1
:10070E00F0000030F1005E08F3005D08F2000A16FA
:10071E008A11D8210A128A11710883160313DE007A
:10072E007008DD000A30F7000030F8005E08FA00AD
:10073E005D08F9000A168A119F220A128A1178089A
:10074E0083160313DE007708DD00DE1FB42BFF30A7
:10075E00DD070318DE0AFF30DE075D03FF3A0A12DB
:10076E008A158E220A128A118312031340088316E9
:10077E000313DF0083120313410883160313E000F3
:10078E0083120313420883160313E10065088312D4
:10079E000313B00083160313660883120313B1000C
:1007AE0083160313670883120313B2008316031311
:1007BE005F0883120313B3008316031360088312BA
:1007CE000313B40083160313610883120313B500D9
:1007DE000A168A112D270A128A1183120313300862
:1007EE0083160313DF0083120313310883160313DA
:1007FE00E00083120313320883160313E1005F082F
:10080E00F0006008F1006108F2000030F300803063
:10081E00F4003F30F5000A168A11FA220A128A11E4
:10082E000318212CFF3083160313DD070318DE0A8D
:10083E00FF303D2C831603135F08F0006008F100B3
:10084E006108F2000030F3002030F4004130F50072
:10085E000A168A11FA220A128A11031C3E2C013042
:10086E0083160313DD070318DE0A0030DE07831636
:10087E0003136408803AFF0080307F02031D492C69
:10088E000D3063020318842C8316031363080A12B7
:10089E008A11CA200A128A11831203134008D70044
:1008AE004108D8004208D900831603136508831245
:1008BE000313DA0083160313660883120313DB0097
:1008CE0083160313670883120313DC000A128A15BA
:1008DE0053200A128A118312031357088316031327
:1008EE00E50083120313580883160313E6008312E0
:1008FE000313590883160313E700831603135E08C8
:10090E00803AFF0080307F02031D8F2C0A305D027B
:10091E000318C22C831603136708660465040319B3
:10092E001B2D650883120313C90083160313660873
:10093E0083120313CA00831603136708831203136B
:10094E00CB000A168A112B250A128A118312031361
:10095E004C084B044A044904031D1B2D8316031334
:10096E005E08803AFF0080307F02031DC02C0230EB
:10097E005D02031C1B2D831603135F08F000600835
:10098E00F1006108F2007030F3008930F40040305D
:10099E00F5000A168A11FA220A128A110318D92CA6
:1009AE00F730DA2CF83083160313DD070318DE0A4E
:1009BE00FF30DE075D080A128A158E220A128A118E
:1009CE0083120313400883160313DF0083120313ED
:1009DE00410883160313E0008312031342088316A3
:1009EE000313E1006508F0006608F1006708F200E5
:1009FE005F08F3006008F4006108F5000A128A111E
:100A0E0007200A128A11730883160313DC0072087A
:100A1E00DB007108DA007008D9000030E500003004
:100A2E00E6000030E7008A2D831603136508831253
:100A3E000313C90083160313660883120313CA0037
:100A4E0083160313670883120313CB000A168A1149
:100A5E002B250A128A11831203134C0883160313D3
:100A6E00DC00831203134B0883160313DB0083127F
:100A7E0003134A0883160313DA008312031349087B
:100A8E0083160313D9005C08FB005B08FA005A08B2
:100A9E00F9005908F8000A168A11F9210A128A116A
:100AAE00780883120313E4007908E5007A08E6005B
:100ABE0083160313650883120313E70083160313CB
:100ACE00660883120313E800831603136708831264
:100ADE000313E9000A168A11B7210A128A1183122A
:100AEE000313640883160313E500831203136508CA
:100AFE0083160313E600831203136608831603138B
:100B0E00E700DD01DE01E801E80A0A306806031994
:100B1E00CC2D6808CC0001300310CC0DFF3E031D18
:100B2E00932D03104C0D013E84000A168A110020ED
:100B3E000A128A11CD000A168A1100200A128A1191
:100B4E00CE000A168A1100200A128A11CF000A1648
:100B5E008A1100200A128A11D00050085C02031D6F
:100B6E00C22D4F085B02031DC22D4E085A02031DF3
:100B7E00C22D4D085902031CCC2D0130CC004C085F
:100B8E00E8070A306806031D902D03305605CC0089
:100B9E0000305705CD004C084D040319DC2D2D30C7
:100BAE000A168A1138210A128A11FF30831603138E
:100BBE00CC004C08E807680A0319522E831603135B
:100BCE006808CC0001300310CC0DFF3E031DEA2D4A
:100BDE0003104C0D013E84000A168A1100200A12E1
:100BEE008A11F0000A168A1100200A128A11F100E9
:100BFE000A168A1100200A128A11F2000A168A11A8
:100C0E0000200A128A11F3005C08F7005B08F60058
:100C1E005A08F5005908F4000A168A1157230A12C9
:100C2E008A11730883160313E2007208E10071083B
:100C3E00E0007008DF000030F3000030F2000030FA
:100C4E00F1000A30F0006208F7006108F600600853
:100C5E00F5005F08F4000A128A1507200A128A119D
:100C6E00730883160313E2007208E1007108E000B6
:100C7E007008DF005F08303ED72D30300A168A111B
:100C8E0038210A128A11FF3083160313DD07031869
:100C9E00DE0AFF30DE075E08803AFF0080307F02FA
:100CAE00031D5B2E01305D020318442E83160313C1
:100CBE006408803AFF0080307F02031D682E0930E1
:100CCE006302031C6E2E083083160313712E8316D7
:100CDE0003136308CC004C08E8006808CC00CD0173
:100CEE00CC1BCD034C08E3024D08031CE403E402C5
:100CFE0068080319882E2E300A168A1138210A1216
:100D0E008A118316031368080A128A158E220A1294
:100D1E008A1183120313400883160313D200831221
:100D2E000313410883160313D300831203134208DF
:100D3E0083160313D400520883120313B3008316D1
:100D4E000313530883120313B400831603135408BA
:100D5E0083120313B500831603136508831203135E
:100D6E00B00083160313660883120313B1008316B3
:100D7E000313670883120313B2000A168A112D2774
:100D8E000A128A11831203133008C9003108CA00EF
:100D9E003208CB000A168A112B250A128A118312E9
:100DAE0003134C0883160313DC00831203134B0842
:100DBE0083160313DB00831203134A0883160313EF
:100DCE00DA0083120313490883160313D900FF3088
:100DDE00CC004C08E807680A0319A12F6808CC005C
:100DEE0001300310CC0DFF3E031DF82E03104C0DE9
:100DFE00013E84000A168A1100200A128A11F000A0
:100E0E000A168A1100200A128A11F1000A168A1196
:100E1E0000200A128A11F2000A168A1100200A1204
:100E2E008A11F3005C08F7005B08F6005A08F5001B
:100E3E005908F4000A168A1157230A128A117308E8
:100E4E0083160313E2007208E1007108E0007008D7
:100E5E00DF000030F3000030F2000030F1000A3005
:100E6E00F0006208F7006108F6006008F5005F0800
:100E7E00F4000A128A1507200A128A1173088316C3
:100E8E000313E2007208E1007108E0007008DF0051
:100E9E005F08303E0A168A1138210A128A1183160B
:100EAE0003136808CC0001300310CC0DFF3E031D68
:100EBE005B2F03104C0D013E84000A168A11002090
:100ECE000A128A11F0000A168A1100200A128A11DB
:100EDE00F1000A168A1100200A128A11F2000A166F
:100EEE008A1100200A128A11F3005C08F7005B08D1
:100EFE00F6005A08F5005908F4000A128A15072060
:100F0E000A128A11730883160313DC007208DB00C1
:100F1E007108DA007008ED2E30300A168A11382169
:100F2E000A128A11FF3083160313E3070318E40A2B
:100F3E00FF30E4076308640403196B2A932F6308D8
:100F4E006404031DB62F5C085B045A045904031D88
:100F5E00B62F0130E3070318E40A0030E4076808EF
:100F6E00CC00CD01CC1BCD034D08803ACE006408D9
:100F7E00803A4E02031DC52F63084C020318CE2F74
:100F8E00831603136308CC004C08E800E82F831681
:100F9E0003136808CC00CD01CC1BCD036408803A46
:100FAE00CE004D08803A4E02031DDF2F4C0863021F
:100FBE000318E82F831603136808E300E401E31B0C
:100FCE00E4030330831603135605CC000030570597
:100FDE00CD004C084D0403196B2A2D300A168A11C8
:100FEE0038210A128A116B2A080083010A168A1107
:020FFE00242AA3
:10100E00730872047104700403194A28F901F90A6D
:10101E00F31B1F280130F8000310F00DF10DF20D37
:10102E00F30DF80B13280130F8007808F9070F2894
:10103E0073087702031D2D2872087602031D2D28D2
:10104E0071087502031D2D2870087402031C3D28BB
:10105E007008F4027108031C710FF5027208031C6C
:10106E00720FF6027308031C730FF70201300310A0
:10107E00F30CF20CF10CF00CFF3E031D3E28013078
:10108E00F902031D1F287708F3007608F200750891
:10109E00F1007408F0000800831203135708DD00F6
:1010AE005808DE005908DF0003105E0D5F0DE000EA
:1010BE006008E3005A08DD005B08DE005C08DF0014
:1010CE0003105E0D5F0DE0006008E2006308031977
:1010DE007C2862086302031883286303FF3A6207C1
:1010EE00DD0019305D02031C83285A08D7005B0807
:1010FE00D8005C08D90008006208031908006308CC
:10110E006202031892286203FF3A6307DD0019306A
:10111E005D02031808000630DD005D08E100D91BF2
:10112E00E117DC1B6117D817FF30D705FF30D80544
:10113E000030D905DB17FF30DA05FF30DB05003054
:10114E00DC05620863020318D22801300310DA0DA1
:10115E00DB0DDC0DFF3E031DAD280130E2026208FF
:10116E0063060319CD280130E1026108073903191E
:10117E00CD28AC2801300310D90CD80CD70CFF3E6B
:10118E00031DC2280130DD005D08E3076308620617
:10119E000319FB28C128630862020318FB280130DB
:1011AE000310D70DD80DD90DFF3E031DD7280130E2
:1011BE00E302620863060319F7280130E1026108B1
:1011CE0007390319F728D62801300310DC0CDB0C85
:1011DE00DA0CFF3E031DEC280130DD005D08E2074E
:1011EE0063086206031DEB28E11F0D29FF30D706A9
:1011FE00FF30D806FF30D9060130D707003003186C
:10120E000130D807003003180130D907611F1F299C
:10121E00FF30DA06FF30DB06FF30DC060130DA077E
:10122E00003003180130DB07003003180130DC07F3
:10123E00E1015708DA07580803110318580A031D6D
:10124E00DB07590803110318590A031DDC07DC1FBD
:10125E004229FF30DA06FF30DB06FF30DC060130B4
:10126E00DA07003003180130DB07003003180130B5
:10127E00DC07E101E10A5A08F0005B08F1005C08A6
:10128E00F2006308DD005D08F3006108DE005E0811
:10129E00F4000A168A11B523700883120313D700BF
:1012AE007108D8007208D900080070308400000858
:1012BE00F600840A0008F700840A0008F800840A81
:1012CE000008F9000310780D790DFA007A088312E0
:1012DE000313A5002508031D7D290030F3000030FF
:1012EE00F2000030F1000030F0000800733084008E
:1012FE000008F600840A0008F700840A0008F800C7
:10130E00840A0008F9000310780D790DFA007A08A6
:10131E00A4002408031D9C290030F3000030F200C5
:10132E000030F1000030F000080070308400003012
:10133E008004840A00308004840A80308004840A89
:10134E000030800470308400FF308005840AFF3046
:10135E008005840AFF308005840A003080057330D2
:10136E00840000308004840A00308004840A8030B7
:10137E008004840A0030800473308400FF308005BE
:10138E00840AFF308005840AFF308005840A00300D
:10139E0080050030A3000030A2000030A100003014
:1013AE00A0007F30A502A0302407F6007608A50223
:1013BE002030F6007608A4000130F6000310A00DD0
:1013CE00A10DA20DA30DF60BE529733084000008C4
:1013DE00F600840A0008F700840A0008F800840A60
:1013EE000008F900703084000008FA00840A000832
:1013FE00FB00840A0008FC00840A0008FD0079083E
:10140E007D02031D142A78087C02031D142A770816
:10141E007B02031D142A76087A02031C392A7330C4
:10142E0084000008F600840A0008F700840A000809
:10143E00F800840A0008F9007030840076088002F3
:10144E00840A7708031C770F8002840A7808031C2D
:10145E00780F8002840A7908031C790A800203300F
:10146E0084022014703084000310800D840A800DD5
:10147E00840A800D840A800D840384038403013062
:10148E00A402031DE329A51F6A2A2508803A9F3E60
:10149E0003185A2A0030F3000030F2000030F10039
:1014AE000030F000080001300310A30CA20CA10CB8
:1014BE00A00CFF3E031D5B2A0130F6007608A5073F
:1014CE000319852A5A2A20302502031C822A00304D
:1014DE00F3000030F2000030F1000030F0000800A0
:1014EE000130F6000310A00DA10DA20DA30DF60BF9
:1014FE00792A0130A5022508031D772A2308F30057
:10150E002208F2002108F1002008F00008008312E2
:10151E000313C800C81FDF2BC809C80A4808803A41
:10152E00123E031C522B0330C3004308A4000A30A2
:10153E00F7000030F8004808F200F301F21BF30345
:10154E006430F0000030F1000A168A1154220A129B
:10155E008A157108FA007008F9000A168A119F227E
:10156E000A128A157708093E0A168A116F210A1285
:10157E008A15293E84000A168A1100200A128A153D
:10158E0083120313B0000A168A1100200A128A155C
:10159E00B1000A168A1100200A128A15B200033011
:1015AE00C4004408A4006430F7000030F800480876
:1015BE00F900FA01F91BFA030A168A119F220A1280
:1015CE008A157708123E0A168A116F210A128A1599
:1015DE00293E84000A168A1100200A128A158312E7
:1015EE000313B3000A168A1100200A128A15B400DA
:1015FE000A168A1100200A128A15B5000A168A11D7
:10160E002D270A128A15831203133008C5003108DC
:10161E00C6003208C7000330C3004308A4004808C0
:10162E00F200F301F21BF3030A30F0000030F10078
:10163E000A168A1154220A128A1570080A168A117D
:10164E006F210A128A15293E84000A168A1100207B
:10165E000A128A1583120313B0000A168A1100208B
:10166E000A128A15B1000A168A1100200A128A156A
:10167E00B2004508B3004608B4004708B5000A1684
:10168E008A112D27831203133008C0003108C100C0
:10169E003208C20008004808803A753E031CC02B71
:1016AE000330C3004308A4004808F200F301F21B04
:1016BE00F3030A30F0000030F1000A168A115422AA
:1016CE000A128A1570080A168A116F210A128A15D3
:1016DE00293E84000A168A1100200A128A158312E6
:1016EE000313B0000A168A1100200A128A15B100DF
:1016FE000A168A1100200A128A15B2000330C4009D
:10170E004408A4000A30F7000030F8004808F90039
:10171E00FA01F91BFA030A168A119F220A128A1578
:10172E007708093E0A168A116F210A128A15293E78
:10173E0084000A168A1100200A128A1583120313D6
:10174E00B3000A168A1100200A128A15B4000A166E
:10175E008A1100200A128A15B5000A168A112D2741
:10176E00831203133008C0003108C1003208C200D2
:10177E0008000330C3004308A40048080A168A1163
:10178E006F210A128A15293E84000A168A1100203A
:10179E000A128A1583120313C0000A168A1100203A
:1017AE000A128A15C1000A168A110020C20008000A
:1017BE004808803A123E031C9C2C0330C300430899
:1017CE00A4000A30F7000030F8004808F200F301D8
:1017DE00F21BF3036430F0000030F1000A168A1198
:1017EE0054220A128A157108FA007008F9000A16B6
:1017FE008A119F220A128A157708093E0A168A1143
:10180E006F210A128A15503E84000A168A11002092
:10181E000A128A1583120313B0000A168A110020C9
:10182E000A128A15B1000A168A1100200A128A15A8
:10183E00B2000330C4004408A4006430F700003046
:10184E00F8004808F900FA01F91BFA030A168A1182
:10185E009F220A128A157708123E0A168A116F21E4
:10186E000A128A15503E84000A168A1100200A12A6
:10187E008A1583120313B3000A168A1100200A1266
:10188E008A15B4000A168A1100200A128A15B500AC
:10189E000A168A112D270A128A158312031330088D
:1018AE00C5003108C6003208C7000330C300430824
:1018BE00A4004808F200F301F21BF3030A30F00013
:1018CE000030F1000A168A1154220A128A15700885
:1018DE000A168A116F210A128A15503E84000A16C2
:1018EE008A1100200A128A1583120313B0000A16F9
:1018FE008A1100200A128A15B1000A168A110020D8
:10190E000A128A15B2004508B3004608B40047080B
:10191E00B5000A168A112D27831203133008C00052
:10192E003108C1003208C20008004808803A753EEE
:10193E00031C0A2D0330C3004308A4004808F2001C
:10194E00F301F21BF3030A30F0000030F1000A1627
:10195E008A1154220A128A1570080A168A116F21EA
:10196E000A128A15503E84000A168A1100200A12A5
:10197E008A1583120313B0000A168A1100200A1268
:10198E008A15B1000A168A1100200A128A15B200B1
:10199E000330C4004408A4000A30F7000030F800F9
:1019AE004808F900FA01F91BFA030A168A119F2258
:1019BE000A128A157708093E0A168A116F210A1231
:1019CE008A15503E84000A168A1100200A128A15C2
:1019DE0083120313B3000A168A1100200A128A1505
:1019EE00B4000A168A1100200A128A15B5000A16CA
:1019FE008A112D27831203133008C0003108C1004D
:101A0E003208C20008000330C3004308A40048088F
:101A1E000A168A116F210A128A15503E84000A1680
:101A2E008A1100200A128A1583120313C0000A16A7
:101A3E008A1100200A128A15C1000A168A11002086
:101A4E00C2000800113083160313BE008030BF00A1
:101A5E003B30C0000530A6001B30A700B530A800F3
:101A6E00003083120313D700A030D8004030D900C5
:101A7E000A168A11A3240A128A1583120313400828
:101A8E00D4004108D5004208D6000A168A1140211A
:101A9E000A128A15831203135408DA005508DB0064
:101AAE005608DC000A128A1553200A128A15831270
:101ABE000313570883160313A90083120313580840
:101ACE0083160313AA0083120313590883160313F4
:101ADE00AB000A168A11A3240A128A158312031365
:101AEE00400883160313AC008312031341088316B8
:101AFE000313AD0083120313420883160313AE00C3
:101B0E00003083120313B0001630B1004530B2001E
:101B1E0083160313290883120313A00083160313DD
:101B2E002A0883120313A100831603132B088312B2
:101B3E000313A200831603132C0883120313A300AE
:101B4E00831603132D0883120313A40083160313A5
:101B5E002E0883120313A5000A168A11B9250A123C
:101B6E008A15831203132008B3002108B40022083B
:101B7E00B5000A168A112D270A128A15831203132D
:101B8E00300883160313B50083120313310883162E
:101B9E000313B60083120313320883160313B70020
:101BAE00003083120313D7008030D800BF30D90025
:101BBE000030A000C830A1004230A20083160313EB
:101BCE00350883120313A3008316031336088312FA
:101BDE000313A40083160313370883120313A500FF
:101BEE000A168A11B9250A128A15831203132008C0
:101BFE00DA002108DB002208DC000A128A155320C5
:101C0E000A128A1583120313570883160313B8009A
:101C1E0083120313580883160313B9008312031398
:101C2E00590883160313BA003E0883120313A0004B
:101C3E00831603133F0883120313A10083160313A5
:101C4E00400883120313A20083160313380883126D
:101C5E000313A30083160313390883120313A4007E
:101C6E00831603133A0883120313A5000A168A116A
:101C7E00B9250A128A15831203132008831603133B
:101C8E00BB0083120313210883160313BC008312B7
:101C9E000313220883160313BD003E088312031399
:101CAE00D700831603133F0883120313D80083163D
:101CBE000313400883120313D90083160313260857
:101CCE0083120313B0008316031327088312031322
:101CDE00B10083160313280883120313B200831670
:101CEE0003133B0883120313B300831603133C083C
:101CFE0083120313B400831603133D0883120313D8
:101D0E00B5000A168A112D270A128A15831203139B
:101D1E003008DA003108DB003208DC000A128A15BE
:101D2E0053200A128A1583120313570883160313BE
:101D3E00AF0083120313580883160313B0008312E7
:101D4E000313590883160313B100003083120313D3
:101D5E00D7008030D8003F30D900831603133B08DC
:101D6E0083120313B000831603133C08831203136C
:101D7E00B100831603133D0883120313B2008316BA
:101D8E0003132F0883120313B300831603133008B3
:101D9E0083120313B4008316031331088312031343
:101DAE00B5000A168A112D270A128A1583120313FB
:101DBE003008DA003108DB003208DC000A128A151E
:101DCE0053200A128A15831203135708831603131E
:101DDE00B20083120313580883160313B300831241
:101DEE000313590883160313B40000308312031330
:101DFE00B000C830B1004230B2008316031332086F
:101E0E0083120313B30083160313330883120313D1
:101E1E00B40083160313340883120313B5000A1695
:101E2E008A112D270A128A1583120313300883167E
:101E3E000313A00083120313310883160313A100AA
:101E4E0083120313320883160313A2002008831291
:101E5E000313A30083160313210883120313A40094
:101E6E0083160313220883120313A5000030A0006B
:101E7E00C830A1004230A2000A168A11B9250A12F2
:101E8E008A15831203132008D4002108D5002208D6
:101E9E00D6000A168A1140210A128A1583120313DC
:101EAE005408D7005508D8005608D9000030A000B5
:101EBE00C830A1004230A2008316031335088312E6
:101ECE000313A30083160313360883120313A4000F
:101EDE0083160313370883120313A5000A168A11FB
:101EEE00B9250A128A15831203132008DA00210875
:101EFE00DB002208DC000A128A1553200A128A150A
:101F0E0083120313570883160313B80083120313A7
:101F1E00580883160313B900831203135908831646
:101F2E000313BA003B0883120313D700831603135F
:101F3E003C0883120313D800831603133D08831243
:101F4E000313D900831603133E0883120313A00054
:101F5E00831603133F0883120313A1008316031382
:101F6E00400883120313A20083160313380883124A
:101F7E000313A30083160313390883120313A4005B
:101F8E00831603133A0883120313A5000A168A1147
:101F9E00B9250A128A15831203132008DA002108C4
:101FAE00DB002208DC000A128A1553208312031369
:101FBE00570883160313A3008312031358088316BE
:101FCE000313A40083120313590883160313A500E9
:101FDE00230883120313E4008316031324088312C9
:101FEE000313E50083160313250883120313E6007B
:101FFE00080010308A000408840A82070034013475
:10200E000034003400340A340034003400346434B4
:10201E00003400340034E834033400340034103417
:10202E00273400340034A034863401340034403474
:10203E0042340F34003480349634983400340034F3
:10204E00E134F53405340034CA349A343B34003468
:10205E0080343F34CD34CC343D34D73423343C3407
:10206E00123483343A34B734D1343834C634273446
:10207E003734383486343534C034D6343334CC34F3
:10208E002B343234703489343034E734DB342E342C
:10209E00E5343C341E344234A2340D3400348034E2
:1020AE003F340034203441340034C83442340034D8
:1020BE007A34443440341C3446345034C3344734B8
:1020CE00243474344934973418344B34BC34BE340D
:1020DE004C346B346E344E340334153450347934FE
:1020EE00AD346034F33449347134FF340334543432
:1020FE0020343D34203425342E34323466345B346F
:10210E00E234843483345D340D340A340034533471
:10211E0074346134723474345F34543465346D34D1
:0A212E00703421340D340A340034FB
:10227000F000831203130C1E39297008990008001E
:1022800083120313560855045404031908008030C0
:10229000D606080083120313051085118316031355
:1022A0000514851501309F00080083160313871756
:1022B00081309900243098009030831203139800E5
:1022C0000800F100F0013A30710203186D29303036
:1022D0007102031C6D29F001F00A700C08008312D2
:1022E0000313A600A501261C79292408FC007C08FC
:1022F000A5070310A40D0310A60C2608031D7329BF
:10230000250808007808F0007908F100F2018E3005
:10231000FB007B08F300F4010A168A11B52370084C
:10232000F8007108F9007208FA000800FD01F91FB1
:10233000A029F809F909F80A0319F90AFD01FD0AAB
:102340007808F0007908F100F2018E30FB007B087C
:10235000F3007D08FC007C08F4000A168A11B523FE
:102360007008F8007108F9007208FA00080083127A
:1023700003136608650464040319C0298030E60667
:102380006708D7006808D8006908D9006408DA002F
:102390006508DB006608DC000A128A1553208312E8
:1023A00003135708E4005808E5005908E600080040
:1023B000F401F501701CE2297208F4070318F50A0C
:1023C0007308F50701300310F20DF30DFF3E031DF6
:1023D000E32901300310F10CF00CFF3E031DEA2944
:1023E00070087104031DDA297508F1007408F00003
:1023F00008008E30FC007C08FD00FF307B050319CF
:102400000F2A01300310FB0CFA0CF90CF80CFF3EFC
:10241000031D022A0130FC007C08FD07FD29780815
:10242000F0007908F1007A08F2007D08FC007C08D1
:10243000F300F4010A168A11B5237008F800710838
:10244000F9007208FA0008008316031308128312B9
:10245000031308120A168A1155210A168A110A1640
:102460008A114A210A168A1189300A128A116422B5
:102470000A168A118312031308160A168A11712686
:102480000A168A11831203136708EA006808EB0032
:102490006908EC0079300A128A1164220A168A113E
:1024A0008312031308123A2AF601F31F5E2AF20977
:1024B000F309F20A0319F30AF601F60AF11F652A75
:1024C000F009F109F00A0319F10A700871040319FF
:1024D000922AF501F50AF11B792A01300310F00D5B
:1024E000F10DFF3E031D6E2A0130F4007408F5075C
:1024F0006B2A71087302031D7F2A70087202031C85
:10250000872A7008F2027108031CF303F3020130FA
:102510000310F10CF00CFF3E031D882A0130F50278
:10252000031D792A760803199A2AF209F309F20A97
:102530000319F30A7308F1007208F000080083120F
:102540000313A101F81FAB2AF709F809F70A0319C9
:10255000F80AA101A10AFA1FB62AF909FA09F90A2B
:102560000319FA0A0130FB007B08A106A201A301AE
:10257000770878040319ED2AA001A00AF81BCC2AD9
:1025800001300310F70DF80DFF3E031DC12A013085
:10259000FB007B08A007BE2A01300310A20DA30D8B
:1025A000FF3E031DCD2A78087A02031DD92A770839
:1025B0007902031CE22A7708F9027808031CFA035F
:1025C000FA02221401300310F80CF70CFF3E031D31
:1025D000E32A0130A002031DCC2A21080319F52AA1
:1025E000A209A309A20A0319A30A2308F8002208D2
:1025F000F7000800F21F212B0030F6000030F70032
:102600008030F8007009F9007109FA007209FB00C6
:10261000F90A0319FA0A0319FB0A7908F6077A0876
:1026200003187A0F142B152BF7077B0803187B0F61
:102630001A2B1B2BF8077608F0007708F1007808B2
:10264000F200F51F482B0030F6000030F700803014
:10265000F8007309F9007409FA007509FB00F90A1A
:102660000319FA0A0319FB0A7908F6077A0803180E
:102670007A0F3B2B3C2BF7077B0803187B0F412B72
:10268000422BF8077608F3007708F4007808F50085
:102690008030F2068030F50675087202031D0800CE
:1026A00074087102031D08007308700208000030EE
:1026B000FC000030FB000030FA000030F900730825
:1026C0007204710470040319AC2BFD01FD0AF31BA5
:1026D000772B0130F8000310F00DF10DF20DF30D22
:1026E000F80B6B2B0130F8007808FD07672B0130E1
:1026F000F8000310F90DFA0DFB0DFC0DF80B792B0A
:1027000073087702031D8E2B72087602031D8E2B31
:1027100071087502031D8E2B70087402031C9F2B19
:102720007008F4027108031C710FF5027208031C93
:10273000720FF6027308031C730FF702791401304D
:102740000310F30CF20CF10CF00CFF3E031DA02B58
:102750000130FD02031D772B7C08F3007B08F2009B
:102760007A08F1007908F000080073080319BD2BFE
:10277000720871047004031DD02B0030F00000308B
:10278000F1000030F20008000130F5007508F30791
:1027900001300310F20CF10CF00CFF3E031DC92BAD
:1027A000FE3072050319EB2BC42B0130F5007508C0
:1027B000F3070130F007003003180130F107003053
:1027C00003180130F20701300310F20CF10CF00C89
:1027D000FF3E031DE42BFF3072050319FA2BD52BA6
:1027E0000130F30201300310F00DF10DF20DFF3E48
:1027F000031DF32BF11B002C023073020318F02B86
:102800007318082CFF30F0057F30F105FF30F2051A
:102810000310F30C7308F500F601F70110300310F4
:10282000F50DF60DF70DFF3E031D0F2C7508F00496
:102830007608F1047708F204740803190800F21707
:102840000800F400FC018030F2007208F900F70182
:10285000F8017808803AFF0080307F02031D322C97
:102860000830770203185D2C74087905F2007208AD
:10287000FC00FC0DFC01FC0D7C08F200F301720869
:10288000F5047308F60401300310F50DF60DFF3E54
:10289000031D442C0310F40D0130F7070318F80A48
:1028A0000030F8077808803AFF0080307F02031D6F
:1028B0005B2C08307702031C342CFA01FB017B08E7
:1028C000803AFF0080307F02031D682C02307A02BC
:1028D00003189E2C70087905F2007208FC00FC0DAC
:1028E000FC01FC0D7C08F200F3017208F50473088A
:1028F000F6047B08803AFF0080307F02031D822CA3
:1029000001307A0203188B2C01300310F50DF60DFF
:10291000FF3E031D852C0310F00D0130FA0703184C
:10292000FB0A0030FB077B08803AFF0080307F0203
:10293000031D9C2C02307A02031C6A2C7608F100DD
:102940007508F000080083120313D201D30181300F
:102950009F001F151F19AA2C1E08C300C401C50122
:10296000C6014608CA004508C9004408C800430813
:10297000C700831603131E0883120313C300C40188
:10298000C501C6014608CE004508CD004408CC006C
:102990004308CB004B08C3004308F00047080A1661
:1029A0008A1121240A168A11710883120313D30095
:1029B0007008D200773084000A168A1100200A16A7
:1029C0008A11F8000A168A1100200A168A11F900E5
:1029D0000A168A1182210A168A11780883120313B3
:1029E000A0007908A1007A08A2000030B000A03051
:1029F000B1004030B2005308F9005208F8000A163E
:102A00008A1196210A168A11780883120313B300DB
:102A10007908B4007A08B5000A168A112D270A161B
:102A20008A11831203133008A3003108A40032086E
:102A3000A5000A168A11B925831203132008CF00B6
:102A40002108D0002208D1004F08C0005008C10062
:102A50005108C2000800831203134908CD004A0838
:102A6000CE004B08CF0003104E0D4F0DD000500884
:102A7000D6005608031D452D0030CC000030CB0099
:102A80000030CA000030C90008004908CD004A08DB
:102A9000CE004B08CF0017300310CF0CCE0CCD0C5E
:102AA000FF3E031D4C2D4D08D0005008D100CA1721
:102AB000FF30C905FF30CA050030CB054908D200F8
:102AC0004A08D3004B08D400D5018E30D602D61F59
:102AD000872D5608803A8F3E0318772D0030CC00A2
:102AE0000030CB000030CA000030C90008000130BF
:102AF0000310D50CD40CD30CD20CFF3E031D782D43
:102B00000130CD004D08D6070319A22D772D1830BE
:102B10005602031C9F2D0030CC000030CB0000304B
:102B2000CA000030C90008000130CD000310D20DEA
:102B3000D30DD40DD50DCD0B962D0130D6025608F0
:102B4000031D942D51080319B02DD209D309D409BE
:102B5000D509D20A0319D30A0319D40A0319D50ACD
:102B60005508CC005408CB005308CA005208C900CD
:102B70000800831203132308A6002408A7002508D1
:102B8000A8000310270D280DA9002908AE002E0863
:102B9000031DD12D0030A0000030A1000030A200A4
:102BA00008002008A6002108A7002208A80003109A
:102BB000270D280DA9002908AF002F08031DE72DB8
:102BC0000030A0000030A1000030A200080000305A
:102BD000AB000030AC000030AD0089302F07A600FC
:102BE0002608AE022308A6002408A7002508A8008E
:102BF00010300310A80CA70CA60CFF3E031DF92DE6
:102C00002608A9002908AF002008A6002108A7006F
:102C10002208A80010300310A80CA70CA60CFF3E39
:102C2000031D0B2E2608A9002908AF068030A60038
:102C30002608AF05A417FF30A305FF30A405003018
:102C4000A505A117FF30A005FF30A1050030A205A2
:102C50001830A6002608AA0001300310AB0DAC0DF9
:102C6000AD0DFF3E031D2D2E22082502031D3E2E15
:102C700021082402031D3E2E20082302031C4B2E94
:102C80002008A3022108031C210FA4022208031C10
:102C9000220AA5022B1401300310A30DA40DA50DCB
:102CA000FF3E031D4C2E0130AA02031D2C2E2B08C3
:102CB000F0002C08F1002D08F2002E08A6002608CE
:102CC000F3002F08A7002708F4000A168A11B5237D
:102CD000700883120313A0007108A1007208A200FB
:102CE0000800003083160313C4000030C500003014
:102CF000C6000030C7000030C8000030C900CA015B
:102D0000CB014B08803AFF0081307F02031D8A2EE1
:102D10002D304A020318ED2E0A128A1529250A16AB
:102D20008A1183120313640883160313C1008312EC
:102D30000313650883160313C20083120313660886
:102D400083160313C300410883120313D7008316AD
:102D50000313420883120313D80083160313430896
:102D600083120313D9008316031347088312031336
:102D7000DA0083160313480883120313DB0083165B
:102D80000313490883120313DC000A128A15532027
:102D90000A168A1183120313570883160313C700F8
:102DA00083120313580883160313C80083120313F6
:102DB000590883160313C9000130CA070318CB0A48
:102DC0000030CB074B08803AFF0081307F02031DA3
:102DD000EB2E2D304A02031C8C2E0030831203137D
:102DE000A0009630A1004330A200831603134708C9
:102DF00083120313A30083160313480883120313DB
:102E0000A40083160313490883120313A5000A16AE
:102E10008A11B92583120313200883160313C400F3
:102E200083120313210883160313C50083120313AF
:102E3000220883160313C600440883120313E70015
:102E400083160313450883120313E8008316031344
:102E5000460883120313E9000800831203133008A5
:102E6000B6003108B7003208B8000310370D380D2E
:102E7000B9003908BA003A08031D452F0030B000E8
:102E80000030B1000030B20008003308B60034084A
:102E9000B7003508B8000310370D380DB9003908F0
:102EA000BF003F08031D5B2F0030B0000030B100B1
:102EB0000030B20008003F087B3EB6003608BA0773
:102EC0003008B6003108B7003208B80010300310DF
:102ED000B80CB70CB60CFF3E031D672F3608B900BF
:102EE0003908BF003308B6003408B7003508B80009
:102EF00010300310B80CB70CB60CFF3E031D792F31
:102F00003608B9003908BF068030B6003608BF055C
:102F1000B117B417FF30B305FF30B4050030B50565
:102F20000030BB000030BC000030BD000730B600F0
:102F30003608BE00301CAA2F3308BB073408031123
:102F40000318340A031DBC07350803110318350A9A
:102F5000031DBD0701300310B20CB10CB00CFF3ED5
:102F6000031DAB2F01300310B30DB40DB50DFF3EA3
:102F7000031DB32F0130BE02031D9A2F0930B60086
:102F80003608BE00301CD22F3308BB0734080311AB
:102F90000318340A031DBC07350803110318350A4A
:102FA000031DBD0701300310B20CB10CB00CFF3E85
:102FB000031DD32F01300310BD0CBC0CBB0CFF3E16
:102FC000031DDB2F0130BE02031DC22F3B08F000A2
:102FD0003C08F1003D08F2003A08B6003608F3005C
:102FE0003F08B7003708F4000A168A11B5237008A5
:102FF00083120313B0007108B1007208B200080018
:02400E0072FF3F
:00000001FF
